{
  "abi": [
    {
      "inputs": [],
      "stateMutability": "nonpayable",
      "type": "constructor"
    },
    {
      "anonymous": false,
      "inputs": [],
      "name": "donateToOwnerEvent",
      "type": "event"
    },
    {
      "anonymous": false,
      "inputs": [
        {
          "indexed": true,
          "internalType": "address",
          "name": "user",
          "type": "address"
        },
        {
          "indexed": false,
          "internalType": "uint256",
          "name": "newValue",
          "type": "uint256"
        }
      ],
      "name": "setOpenDataEvent",
      "type": "event"
    },
    {
      "anonymous": false,
      "inputs": [
        {
          "indexed": false,
          "internalType": "uint256",
          "name": "newOwnerUnixTime",
          "type": "uint256"
        }
      ],
      "name": "setOwnerDataEvent",
      "type": "event"
    },
    {
      "inputs": [],
      "name": "donateToOwner",
      "outputs": [],
      "stateMutability": "payable",
      "type": "function"
    },
    {
      "inputs": [],
      "name": "owner",
      "outputs": [
        {
          "internalType": "address",
          "name": "",
          "type": "address"
        }
      ],
      "stateMutability": "view",
      "type": "function"
    },
    {
      "inputs": [],
      "name": "ownerUnixTimeContract",
      "outputs": [
        {
          "internalType": "uint256",
          "name": "",
          "type": "uint256"
        }
      ],
      "stateMutability": "view",
      "type": "function"
    },
    {
      "inputs": [
        {
          "internalType": "uint256",
          "name": "x",
          "type": "uint256"
        }
      ],
      "name": "set",
      "outputs": [],
      "stateMutability": "nonpayable",
      "type": "function"
    },
    {
      "inputs": [],
      "name": "setOwnerData",
      "outputs": [],
      "stateMutability": "nonpayable",
      "type": "function"
    },
    {
      "inputs": [],
      "name": "storedData",
      "outputs": [
        {
          "internalType": "uint256",
          "name": "",
          "type": "uint256"
        }
      ],
      "stateMutability": "view",
      "type": "function"
    }
  ],
  "bytecode": {
    "object": "0x60a060405234801561001057600080fd5b5033606081901b60805261036d61003f6000396000818160ea01528181610178015261027d015261036d6000f3fe6080604052600436106100555760003560e01c80632a1afcd91461005a57806333971f091461008357806357bb806d1461009957806360fe47b1146100a35780636ba7730d146100c35780638da5cb5b146100d8575b600080fd5b34801561006657600080fd5b5061007060005481565b6040519081526020015b60405180910390f35b34801561008f57600080fd5b5061007060015481565b6100a1610124565b005b3480156100af57600080fd5b506100a16100be36600461031e565b6101ec565b3480156100cf57600080fd5b506100a1610272565b3480156100e457600080fd5b5061010c7f000000000000000000000000000000000000000000000000000000000000000081565b6040516001600160a01b03909116815260200161007a565b3461016b5760405162461bcd60e51b81526020600482015260126024820152714d53472e56414c55455f49535f5a45524f2160701b60448201526064015b60405180910390fd5b6040516001600160a01b037f000000000000000000000000000000000000000000000000000000000000000016904780156108fc02916000818181858888f193505050501580156101c0573d6000803e3d6000fd5b506040517f18ae564dd76f23d684d73c4183754721685ed76bde537491cb249cab372e93f890600090a1565b8060005414156102355760405162461bcd60e51b815260206004820152601460248201527343414e4e4f545f42455f53414d455f56414c554560601b6044820152606401610162565b600081905560405181815233907f6f8fc5732b31c54a81b589fe072057c98301662b6fc4cf003aa98fc38f3e5ea79060200160405180910390a250565b336001600160a01b037f000000000000000000000000000000000000000000000000000000000000000016146102e35760405162461bcd60e51b8152602060048201526016602482015275594f555f4152455f4e4f545f5448455f4f574e45522160501b6044820152606401610162565b4260018190556040519081527f3e9dd552e5ada7581d3197c73c6895f29b5bb7680ecd146e8c1ff46fc9f0a9839060200160405180910390a1565b60006020828403121561033057600080fd5b503591905056fea2646970667358221220046653881f4e0aeda70ac4a4662ec21524a48eee957b8c33193351311512c1d664736f6c63430008070033",
    "linkReferences": {}
  },
  "methodIdentifiers": {
    "donateToOwner()": "57bb806d",
    "owner()": "8da5cb5b",
    "ownerUnixTimeContract()": "33971f09",
    "set(uint256)": "60fe47b1",
    "setOwnerData()": "6ba7730d",
    "storedData()": "2a1afcd9"
  },
  "id": 4
}