{
  "abi": [
    {
      "anonymous": false,
      "inputs": [],
      "name": "setEvent",
      "type": "event"
    },
    {
      "inputs": [
        {
          "internalType": "uint256",
          "name": "x",
          "type": "uint256"
        }
      ],
      "name": "set",
      "outputs": [],
      "stateMutability": "nonpayable",
      "type": "function"
    },
    {
      "inputs": [],
      "name": "storedData",
      "outputs": [
        {
          "internalType": "uint256",
          "name": "",
          "type": "uint256"
        }
      ],
      "stateMutability": "view",
      "type": "function"
    }
  ],
  "bytecode": {
    "object": "0x608060405234801561001057600080fd5b5061012a806100206000396000f3fe6080604052348015600f57600080fd5b506004361060325760003560e01c80632a1afcd914603757806360fe47b1146051575b600080fd5b603f60005481565b60405190815260200160405180910390f35b6060605c36600460dc565b6062565b005b806000540360ad5760405162461bcd60e51b815260206004820152601460248201527343414e4e4f545f42455f53414d455f56414c554560601b604482015260640160405180910390fd5b60008181556040517f24a4f809cc1bf5b0f3c16b615535b56a0b583b1630e06e32b46b759b8088a95d9190a150565b60006020828403121560ed57600080fd5b503591905056fea26469706673582212200e48a017d5587026930c81d9cf0dbc3c0fc64dc799e88bdec30554918c42896764736f6c634300080f0033",
    "linkReferences": {}
  },
  "methodIdentifiers": {
    "set(uint256)": "60fe47b1",
    "storedData()": "2a1afcd9"
  },
  "id": 4
}