{
  "abi": [
    {
      "inputs": [],
      "stateMutability": "nonpayable",
      "type": "constructor"
    },
    {
      "anonymous": false,
      "inputs": [],
      "name": "donateToOwnerEvent",
      "type": "event"
    },
    {
      "anonymous": false,
      "inputs": [
        {
          "indexed": true,
          "internalType": "address",
          "name": "user",
          "type": "address"
        },
        {
          "indexed": false,
          "internalType": "uint256",
          "name": "newValue",
          "type": "uint256"
        }
      ],
      "name": "setOpenDataEvent",
      "type": "event"
    },
    {
      "anonymous": false,
      "inputs": [
        {
          "indexed": false,
          "internalType": "uint256",
          "name": "newOwnerUnixTime",
          "type": "uint256"
        }
      ],
      "name": "setOwnerDataEvent",
      "type": "event"
    },
    {
      "stateMutability": "payable",
      "type": "fallback"
    },
    {
      "inputs": [],
      "name": "donateToOwner",
      "outputs": [],
      "stateMutability": "payable",
      "type": "function"
    },
    {
      "inputs": [],
      "name": "owner",
      "outputs": [
        {
          "internalType": "address",
          "name": "",
          "type": "address"
        }
      ],
      "stateMutability": "view",
      "type": "function"
    },
    {
      "inputs": [],
      "name": "ownerUnixTimeContract",
      "outputs": [
        {
          "internalType": "uint256",
          "name": "",
          "type": "uint256"
        }
      ],
      "stateMutability": "view",
      "type": "function"
    },
    {
      "inputs": [
        {
          "internalType": "uint256",
          "name": "x",
          "type": "uint256"
        }
      ],
      "name": "set",
      "outputs": [],
      "stateMutability": "nonpayable",
      "type": "function"
    },
    {
      "inputs": [],
      "name": "setOwnerData",
      "outputs": [],
      "stateMutability": "nonpayable",
      "type": "function"
    },
    {
      "inputs": [],
      "name": "storedData",
      "outputs": [
        {
          "internalType": "uint256",
          "name": "",
          "type": "uint256"
        }
      ],
      "stateMutability": "view",
      "type": "function"
    },
    {
      "stateMutability": "payable",
      "type": "receive"
    }
  ],
  "bytecode": {
    "object": "0x60a060405234801561001057600080fd5b5033606081901b60805261031a6100386000396000818160ed015261022a015261031a6000f3fe6080604052600436106100565760003560e01c80632a1afcd91461005f57806333971f091461008857806357bb806d1461009e57806360fe47b1146100a65780636ba7730d146100c65780638da5cb5b146100db57005b3661005d57005b005b34801561006b57600080fd5b5061007560005481565b6040519081526020015b60405180910390f35b34801561009457600080fd5b5061007560015481565b61005d610127565b3480156100b257600080fd5b5061005d6100c13660046102cb565b610199565b3480156100d257600080fd5b5061005d61021f565b3480156100e757600080fd5b5061010f7f000000000000000000000000000000000000000000000000000000000000000081565b6040516001600160a01b03909116815260200161007f565b3461016e5760405162461bcd60e51b81526020600482015260126024820152714d53472e56414c55455f49535f5a45524f2160701b60448201526064015b60405180910390fd5b6040517f18ae564dd76f23d684d73c4183754721685ed76bde537491cb249cab372e93f890600090a1565b8060005414156101e25760405162461bcd60e51b815260206004820152601460248201527343414e4e4f545f42455f53414d455f56414c554560601b6044820152606401610165565b600081905560405181815233907f6f8fc5732b31c54a81b589fe072057c98301662b6fc4cf003aa98fc38f3e5ea79060200160405180910390a250565b336001600160a01b037f000000000000000000000000000000000000000000000000000000000000000016146102905760405162461bcd60e51b8152602060048201526016602482015275594f555f4152455f4e4f545f5448455f4f574e45522160501b6044820152606401610165565b4260018190556040519081527f3e9dd552e5ada7581d3197c73c6895f29b5bb7680ecd146e8c1ff46fc9f0a9839060200160405180910390a1565b6000602082840312156102dd57600080fd5b503591905056fea2646970667358221220d92cecfd4884fc8cc45d30eac018efaa8e380af93da73ddecf523f168feb0a7a64736f6c63430008070033",
    "linkReferences": {}
  },
  "methodIdentifiers": {
    "donateToOwner()": "57bb806d",
    "owner()": "8da5cb5b",
    "ownerUnixTimeContract()": "33971f09",
    "set(uint256)": "60fe47b1",
    "setOwnerData()": "6ba7730d",
    "storedData()": "2a1afcd9"
  },
  "id": 4
}