{
  "abi": [
    {
      "inputs": [],
      "stateMutability": "nonpayable",
      "type": "constructor"
    },
    {
      "anonymous": false,
      "inputs": [],
      "name": "donateToOwnerEvent",
      "type": "event"
    },
    {
      "anonymous": false,
      "inputs": [
        {
          "indexed": true,
          "internalType": "address",
          "name": "user",
          "type": "address"
        },
        {
          "indexed": false,
          "internalType": "uint256",
          "name": "newValue",
          "type": "uint256"
        }
      ],
      "name": "setOpenDataEvent",
      "type": "event"
    },
    {
      "anonymous": false,
      "inputs": [
        {
          "indexed": false,
          "internalType": "uint256",
          "name": "newOwnerUnixTime",
          "type": "uint256"
        }
      ],
      "name": "setOwnerDataEvent",
      "type": "event"
    },
    {
      "inputs": [],
      "name": "owner",
      "outputs": [
        {
          "internalType": "address",
          "name": "",
          "type": "address"
        }
      ],
      "stateMutability": "view",
      "type": "function"
    },
    {
      "inputs": [],
      "name": "ownerUnixTimeContract",
      "outputs": [
        {
          "internalType": "uint256",
          "name": "",
          "type": "uint256"
        }
      ],
      "stateMutability": "view",
      "type": "function"
    },
    {
      "inputs": [
        {
          "internalType": "uint256",
          "name": "x",
          "type": "uint256"
        }
      ],
      "name": "set",
      "outputs": [],
      "stateMutability": "nonpayable",
      "type": "function"
    },
    {
      "inputs": [],
      "name": "setOwnerData",
      "outputs": [],
      "stateMutability": "nonpayable",
      "type": "function"
    },
    {
      "inputs": [],
      "name": "storedData",
      "outputs": [
        {
          "internalType": "uint256",
          "name": "",
          "type": "uint256"
        }
      ],
      "stateMutability": "view",
      "type": "function"
    }
  ],
  "bytecode": {
    "object": "0x60a060405234801561001057600080fd5b5033606081901b6080526102636100386000396000818160a3015261017301526102636000f3fe608060405234801561001057600080fd5b50600436106100575760003560e01c80632a1afcd91461005c57806333971f091461007857806360fe47b1146100815780636ba7730d146100965780638da5cb5b1461009e575b600080fd5b61006560005481565b6040519081526020015b60405180910390f35b61006560015481565b61009461008f366004610214565b6100dd565b005b610094610168565b6100c57f000000000000000000000000000000000000000000000000000000000000000081565b6040516001600160a01b03909116815260200161006f565b80600054141561012b5760405162461bcd60e51b815260206004820152601460248201527343414e4e4f545f42455f53414d455f56414c554560601b60448201526064015b60405180910390fd5b600081905560405181815233907f6f8fc5732b31c54a81b589fe072057c98301662b6fc4cf003aa98fc38f3e5ea79060200160405180910390a250565b336001600160a01b037f000000000000000000000000000000000000000000000000000000000000000016146101d95760405162461bcd60e51b8152602060048201526016602482015275594f555f4152455f4e4f545f5448455f4f574e45522160501b6044820152606401610122565b4260018190556040519081527f3e9dd552e5ada7581d3197c73c6895f29b5bb7680ecd146e8c1ff46fc9f0a9839060200160405180910390a1565b60006020828403121561022657600080fd5b503591905056fea264697066735822122094ce54994a938c458f68ada0c7d9177ab4d0d598664042dbce46aaa5c362623a64736f6c63430008070033",
    "linkReferences": {}
  },
  "methodIdentifiers": {
    "owner()": "8da5cb5b",
    "ownerUnixTimeContract()": "33971f09",
    "set(uint256)": "60fe47b1",
    "setOwnerData()": "6ba7730d",
    "storedData()": "2a1afcd9"
  },
  "id": 4
}